:020000040800F2
:1000000000000220ED460008950B0008970B000841
:10001000990B00089B0B00089D0B000800000000D6
:100020000000000000000000000000009F0B00081E
:10003000A10B000800000000A30B0008A50B00089E
:100040003D4700083D4700083D4700083D47000880
:100050003D4700083D4700083D4700083D47000870
:100060003D4700083D4700083D4700083D47000860
:100070003D4700083D4700083D4700083D47000850
:100080003D4700083D4700083D4700083D47000840
:100090003D4700083D4700083D4700083D47000830
:1000A0003D4700083D4700083D4700083D47000820
:1000B0003D4700083D4700083D4700083D47000810
:1000C0003D4700083D4700083D4700083D47000800
:1000D0003D4700083D4700083D470008A90B0008C0
:1000E0003D4700083D4700083D4700083D470008E0
:1000F000E90B00083D4700083D4700083D47000860
:100100003D4700083D4700083D4700083D470008BF
:100110003D4700083D4700083D470008890C00089E
:100120003D4700083D4700083D4700083D4700089F
:100130003D4700083D4700083D4700083D4700088F
:100140003D4700083D4700083D4700083D4700087F
:100150003D4700083D4700083D4700083D4700086F
:100160003D4700083D4700083D4700083D4700085F
:100170003D4700083D4700083D47000800000000DB
:080180003D4700083D4700085F
:1001880053B94AB9002908BF00281CBF4FF0FF31F6
:100198004FF0FF3000F00CB8ADF1080C6DE904CE5B
:1001A80004F0AEFDDDF804E0DDE9022304B0704799
:1001B800704700BF0348044B834202D0034B03B18E
:1001C80018477047700000207000002000000000F1
:1001D8000548064B1B1AD90F01EBA301491002D0A1
:1001E800034B03B1184770477000002070000020CF
:1001F8000000000010B5064C237843B9FFF7DAFF7A
:10020800044B13B10448AFF300800123237010BDE1
:1002180070000020000000000050000808B5054BE1
:100228001BB105490548AFF30080BDE80840FFF75A
:10023800CFBF00BF0000000074000020005000087D
:100248002DE9F0418AB002F0BDF9364B1B68C31A9C
:10025800042B02D80AB0BDE8F081324B186007AB16
:1002680001930DF11E03009308AB0DF1220209A9B9
:100278000DF1260002F0FEFDBDF9203000EE103A27
:10028800B8EEC00ADFED287ABDF91E3000EE903ACC
:10029800F8EEE00ABDF91C3001EE103AB8EEC11ACA
:1002A800BDF9263001EE903AF8EEE11A9FED1F7A7B
:1002B800BDF9243002EE103AB8EEC22ABDF9223058
:1002C80002EE903AF8EEE22ADFF87C80D8F80030A7
:1002D8000393174F3B680493164E33680593164DE6
:1002E8002B68069303AC62EE872A22EE072A61EE9A
:1002F800871A21EE271A60EEA70A20EE270A204661
:1003080002F016FE039BC8F80030049B3B60059B77
:100318003360069B2B60094B094A0A49204602F0C4
:100328003BFF97E78C00002058A08B3A0000003A6A
:10033800C4040020C0040020BC0400209000002059
:1003480094000020980000200C00002008B50268E6
:10035800034B9A4200D008BD02F028F9FBE700BF22
:100368000014004072B6FEE710B594B008AC302215
:100378000021204604F0DFF900230393049305933A
:10038800069307930193204A116C41F08051116440
:10039800126C02F080520192019A02931B4B1A6868
:1003A80042F480421A601B6803F480430293029B64
:1003B800012308934FF48033099302220E924FF4DD
:1003C80080030F9304231093A82111911292139381
:1003D800204601F0ABFB90B90F230393022304934B
:1003E800002305934FF4A05306934FF480530793CB
:1003F800052103A801F004FE18B914B010BDFFF7D9
:10040800B1FFFFF7AFFF00BF0038024000700040A7
:1004180008B502F0B1F8FFF7A7FF00F039F800F0CF
:1004280057FB00F01FF900F051F900F081F900F0D6
:10043800B1F900F0D7FA00F0BDF802F07FFC03F044
:10044800A1F803F0F9F802F0FBFC0D4B1A68D36829
:1004580043F00103D3600B4AD36843F02003D36011
:1004680000222021084801F0B5FF084B00221A603D
:1004780003F08CFBFFF7E4FE02F09EFFFAE700BFF3
:100488005001002000480040000C02409C00002061
:100498002DE9F0438DB007AD002407940894099422
:1004A8000A940B9401943F4B1A6B42F080021A6332
:1004B8001A6B02F080020192019A02941A6B42F0C0
:1004C80001021A631A6B02F001020292029A039463
:1004D8001A6B42F010021A631A6B02F010020392B0
:1004E800039A04941A6B42F002021A631A6B02F020
:1004F80002020492049A05941A6B42F008021A63E5
:100508001A6B02F008020592059A06941A6B42F0DB
:1005180004021A631B6B03F004030693069BDFF8BF
:100528008C9022464FF20301484601F053FFDFF852
:10053800808022464FF49851404601F04BFF1A4EF6
:10054800224648F22001304601F044FF4FF20303EF
:1005580007930127089709940A942946484601F009
:1005680043FE4FF498530793089709940A94294631
:10057800404601F039FE4FF48043079308940994EC
:100588002946304601F030FE48F2200307930897C9
:1005980009940A942946304601F026FE0DB0BDE8BC
:1005A800F08300BF00380240000C024000100240F7
:1005B8000004024008B50D480D4B03604FF48273E8
:1005C800436000238360C360036143614FF400729A
:1005D8008261C3610362436283620A23C36201F0DA
:1005E8001DF900B908BDFFF7BDFEFBE7F8000020C4
:1005F8000038004000B589B00023039304930593A5
:10060800069307930268154B9A4202D009B05DF829
:1006180004FB0021019103F500331A6C42F4804277
:100628001A641A6C02F480420192019A02911A6BC0
:1006380042F002021A631B6B03F002030293029B4F
:100648004FF4604303930223049303230693052383
:10065800079303A9024801F0C7FDD7E70038004017
:100668000004024010B58CB003AC242200212046BF
:1006780004F061F80023019302931248124A0260C1
:10068800436083604FF6FF72C26003614361836118
:1006980003230393012305930993214600F0B6FD34
:1006A80048B900230193029301A9064800F0A0FF6E
:1006B80020B90CB010BDFFF755FEF2E7FFF752FE68
:1006C800F7E700BF700200200000014010B58CB0B1
:1006D80003AC24220021204604F02DF800230193C6
:1006E800029312484FF080420260436083604FF6E5
:1006F800FF72C2600361836103230393012305939F
:100708000993214600F082FD48B900230193029322
:1007180001A9064800F06CFF20B90CB010BDFFF726
:1007280021FEF2E7FFF71EFEF7E700BF28020020D0
:1007380010B58CB003AC24220021204603F0FBFF47
:100748000023019302931148114A026043608360B9
:100758004FF6FF72C2600361836103230393012391
:1007680005930993214600F051FD48B900230193F0
:10077800029301A9054800F03BFF20B90CB010BD59
:10078800FFF7F0FDF2E7FFF7EDFDF7E7E0010020E6
:100798000004004010B58CB003AC24220021204690
:1007A80003F0C9FF0023019302931148114A026024
:1007B800436083604FF6FF72C26003618361032365
:1007C8000393012305930993214600F01FFD48B9BF
:1007D80000230193029301A9054800F009FF20B9FD
:1007E8000CB010BDFFF7BEFDF2E7FFF7BBFDF7E762
:1007F800980100200008004000B58FB0002309933D
:100808000A930B930C930D930368494A93420BD0B8
:10081800B3F1804F2AD0474A934249D0464A93427F
:1008280066D00FB05DF804FB00210191434B5A6C70
:1008380042F001025A645A6C02F001020192019AD4
:1008480002911A6B42F001021A631B6B03F0010359
:100858000293029B4FF44073099302230A930123E6
:100868000D9309A9364801F0BFFCDAE7002103918E
:1008780003F50E331A6C42F001021A641A6C02F086
:1008880001020392039A04911A6B42F001021A635F
:100898001B6B03F001030493049B032309930223B6
:1008A8000A9301230D9309A9254801F09DFCB8E797
:1008B80000210591214B1A6C42F002021A641A6C4D
:1008C80002F002020592059A06911A6B42F00102A3
:1008D8001A631B6B03F001030693069BC02309935D
:1008E80002230A930D9309A9154801F07DFC98E7A6
:1008F80000210791114B1A6C42F004021A641A6C19
:1009080002F004020792079A08911A6B42F0020259
:100918001A631B6B03F002030893089BC023099317
:1009280002230A930D9309A9064801F05DFC78E7B4
:100938000000014000040040000800400038024068
:10094800000002400004024002680E4B9A4200D0A8
:10095800704700B583B00021019103F59A335A6CB2
:1009680042F002025A645B6C03F002030193019B9C
:100978000A462C2001F0ECFD2C2001F0F9FD03B013
:100988005DF804FB0004014000B587B00023019323
:100998000293039304930593026803F1804303F5DC
:1009A80082339A4202D007B05DF804FB002300931B
:1009B8000A4B1A6B42F004021A631B6B03F0040320
:1009C8000093009B4FF47073019302230293032357
:1009D800059301A9024801F007FCE4E7003802404A
:1009E8000008024010B592B00024109411940994A4
:1009F8000A940B940C940D940E940F942022214683
:100A080001A803F098FE3048304B036044608460CE
:100A180044F29F13C36004614461846100F0CAFB1F
:100A280000283CD100231093119310A9264800F008
:100A3800DFFD002836D16023099300220A920B9229
:100A48000C920D920E920F9209A91F4800F06EFCAD
:100A580058BB042209A91C4800F068FC40BB0822C6
:100A680009A9194800F062FC28BB0C2209A91648FC
:100A780000F05CFC10BB00230193029303930493E2
:100A880005934FF400520692089301A90E4800F00E
:100A9800F5FDB0B90C48FFF777FF12B010BDFFF7AE
:100AA80061FCBFE7FFF75EFCC5E7FFF75BFCD0E73B
:100AB800FFF758FCD3E7FFF755FCD6E7FFF752FCE2
:100AC800D9E7FFF74FFCE5E750010020000401409B
:100AD80008B50A480A4B03604FF4E133436000232A
:100AE8008360C36003610C2242618361C36101F0CA
:100AF800ACFE00B908BDFFF735FCFBE7B8020020E3
:100B08000048004010B588B0002303930493059370
:100B1800069307930268194B9A4201D008B010BD9A
:100B28000024019403F5F8331A6C42F480221A6405
:100B38001A6C02F480220192019A02941A6B42F014
:100B480004021A631B6B03F004030293029B4FF425
:100B58004063039302230493032306930723079315
:100B680003A9074801F040FB22462146272001F04F
:100B7800EFFC272001F0FCFCD0E700BF0048004054
:100B880000080240004870470C030020FEE7FEE71B
:100B9800FEE7FEE7FEE770477047704770470000C2
:100BA80008B50C4B1B6813F0200F0BD1094B1B68C1
:100BB80013F0080F02D0074B5A681B68064801F06B
:100BC80063FF08BD034B5968C9B2044802F0D2FE5E
:100BD800F7E700BF00480040B80200200C030020DF
:100BE80008B5204B1B681A6912F0010F36D06FF058
:100BF80001021A611C4A13889BB201339BB213800D
:100C08001A4A13780133DBB21370194A13889BB25E
:100C180001339BB2138013889BB2B3F5FA7F05D3D7
:100C2800144B01221A70124B00221A800E4B1B889B
:100C38009BB2B3F5FA7F14D30F4A136801331360DC
:100C4800094B00221A800D4B01221A701B7843B100
:100C580002F082FD094B00221A7002E0014800F000
:100C680065F908BD500100200A0300200803002090
:100C78000203002000030020040300206405002074
:100C880008B5024800F052F908BD00BF1004002062
:100C980082B0002100910B4B5A6C42F480425A6496
:100CA8005A6C02F480420092009A01911A6C42F048
:100CB80080521A641B6C03F080530193019B02B0AD
:100CC800704700BF0038024030B589B004460023A1
:100CD8000193214B1A6C42F020021A641B6C03F03A
:100CE80020030193019B02A903A801F05FFA069B68
:100CF800CBB901F03BFA0346184AA2FB03239B0C2D
:100D0800013B1748174A026040F2E732C26043606D
:100D1800002303618360836100F020FA054630B147
:100D2800284609B030BD01F021FA4300E4E70C4839
:100D380000F0B6F805460028F2D1372001F018FC7B
:100D48000F2C01D90125EBE700222146372001F0BD
:100D5800FFFB054B1C60E3E70038024083DE1B43C2
:100D680010040020001400400400002030B4036A7E
:100D7800026A22F0010202624268846924F0730C5C
:100D88000C6844EA0C0423F0020C8B6843EA0C0359
:100D9800114DA84203D005F58065A84205D123F07E
:100DA8000803CD682B4323F004030B4DA84203D05E
:100DB80005F58065A84207D122F440724D6945EADD
:100DC800020C8A6942EA0C02426084614A68426302
:100DD800036230BC704700BF0000014030B4036AB2
:100DE800026A22F4807202624268C46924F0730CB9
:100DF8000C6844EA0C0523F400738C6843EA042366
:100E0800114CA04203D004F58064A04206D123F41B
:100E18000063CC6843EA042323F480630A4CA042AD
:100E280003D004F58064A04207D122F440524C69F3
:100E380042EA04128C6942EA04124260C5614A68B7
:100E4800C263036230BC70470000014030B4036ADB
:100E5800026A22F4805202624468C26922F4E642BD
:100E68000D6842EA052223F400538D6843EA0533EE
:100E7800094DA84203D005F58065A84204D124F4A1
:100E880080444D6944EA85144460C2614A6802643A
:100E9800036230BC704700BF00000140704700008B
:100EA80090F83D30012B37D1022380F83D3002689D
:100EB800D36843F00103D3600368194A934220D0F2
:100EC800B3F1804F1DD0A2F57C42934219D002F5B0
:100ED8008062934215D002F58062934211D002F5E8
:100EE800784293420DD002F57052934209D0A2F590
:100EF8009432934205D01A6842F001021A60002029
:100F080070479A6802F00702062A07D01A6842F06A
:100F180001021A60002070470120704700207047C6
:100F280000000140704770477047704770B504462D
:100F38000368DE681D6915F0020F10D016F0020F65
:100F48000DD06FF002021A610123037703689B69D1
:100F580013F0030F5ED0FFF7E6FF0023237715F0A9
:100F6800040F12D016F0040F0FD023686FF004029C
:100F78001A610223237723689B6913F4407F4FD0BB
:100F88002046FFF7D0FF0023237715F0080F12D073
:100F980016F0080F0FD023686FF008021A610423B7
:100FA80023772368DB6913F0030F40D02046FFF74F
:100FB800BAFF0023237715F0100F12D016F0100F88
:100FC8000FD023686FF010021A6108232377236873
:100FD800DB6913F4407F31D02046FFF7A4FF0023DC
:100FE800237715F0010F02D016F0010F2DD115F05F
:100FF800800F02D016F0800F2FD115F0400F02D0CD
:1010080016F0400F31D115F0200F02D016F0200F46
:1010180033D170BDFFF786FF2046FFF785FF9CE7B9
:101028002046FFF77FFF2046FFF77EFFABE720460D
:10103800FFF778FF2046FFF777FFBAE72046FFF76C
:1010480071FF2046FFF770FFC9E723686FF00102C0
:101058001A612046FFF77AF9C9E723686FF0800222
:101068001A61204600F034FBC7E723686FF040029E
:101078001A612046FFF759FFC5E723686FF0200281
:101088001A61204600F023FBC3E700000368324AD8
:10109800904212D0B0F1804F0FD0A2F57C4290421E
:1010A8000BD002F58062904207D002F58062904230
:1010B80003D002F57842904203D123F070034A68C6
:1010C8001343254A90422AD0B0F1804F27D0A2F589
:1010D8007C42904223D002F5806290421FD002F5F4
:1010E800806290421BD002F57842904217D002F5F8
:1010F8007052904213D002F5806290420FD002F5F0
:10110800806290420BD0A2F59832904207D002F547
:101118008062904203D002F58062904203D123F4AA
:101128004073CA68134323F080034A6913438A68EB
:10113800C2620A688262084A904203D002F580625D
:10114800904201D10A690263026842F00402026017
:1011580001224261036070470000014040B310B5AE
:10116800044690F83D30F3B1022384F83D3021461F
:1011780051F8040BFFF78AFF012384F8463084F8FE
:101188003E3084F83F3084F8403084F8413084F8A9
:10119800423084F8433084F8443084F8453084F889
:1011A8003D30002010BD80F83C30FFF777FEDBE7CC
:1011B8000120704740B310B5044690F83D30F3B1B4
:1011C800022384F83D30214651F8040BFFF75EFFF7
:1011D800012384F8463084F83E3084F83F3084F8A0
:1011E800403084F8413084F8423084F8433084F841
:1011F800443084F8453084F83D30002010BD80F834
:101208003C30FFF7A1FBDBE701207047002853D0F3
:10121800F8B50D46044690F83D30002B47D0022320
:1012280084F83D302268936823F4804323F0070351
:101238009360214651F8040BFFF728FF21688B685B
:101248008A690E6A2868184322F4407222F0030261
:10125800AB68AF6943EA0723134323F47C4323F0C5
:10126800FC03EA68EF6942EA07221A432B6A1B0368
:101278002F6943EA0713134326F0AA066A686D69C3
:1012880042EA05123243886021688B6123681A623A
:10129800012384F8463084F83E3084F83F3084F8DF
:1012A800423084F8433084F83D300020F8BD80F89F
:1012B8003C30FFF7A1FAB2E70120704730B4036A67
:1012C800026A22F0100202624468826922F4E6424D
:1012D8000D6842EA052223F020038D6843EA0513CE
:1012E800114DA84203D005F58065A84206D123F028
:1012F8008003CD6843EA051323F040030A4DA84252
:1013080003D005F58065A84207D124F440644D69EF
:1013180044EA85048D6944EA8504446082614A6828
:101328008263036230BC70470000014038B590F812
:101338003C30012B66D004460D46012380F83C3032
:101348000C2A5AD8DFE802F0075959591B5959593C
:101358003059595944000068FFF708FD226893691D
:1013680043F0080393612268936923F004039361AF
:101378002268936929690B43936100203EE0006865
:10138800FFF79CFF2268936943F400639361226826
:10139800936923F48063936122689369296943EA16
:1013A80001239361002029E00068FFF717FD2268F8
:1013B800D36943F00803D3612268D36923F0040397
:1013C800D3612268D36929690B43D361002015E0F2
:1013D8000068FFF73BFD2268D36943F40063D361DB
:1013E8002268D36923F48063D3612268D3692969A9
:1013F80043EA0123D361002000E00120002384F8A0
:101408003C3038BD0220FCE701F01F014FF0010C11
:101418000CFA01FC036A23EA0C030362036A8A409C
:10142800134303627047000010B5044608460029BC
:1014380041D194F83E30013B18BF0123002B6BD1FA
:1014480000284ED1022384F83E300122014620684C
:10145800FFF7DAFF2368324A934203D002F580622D
:10146800934203D15A6C42F400425A6423682C4ACE
:10147800934246D0B3F1804F43D0A2F57C429342C9
:101488003FD002F5806293423BD002F580629342DE
:1014980037D002F57842934233D002F57052934226
:1014A8002FD0A2F5943293422BD01A6842F0010251
:1014B8001A6000202FE0042907D008290BD094F8DF
:1014C8004130013B18BF0123B8E794F83F30013B96
:1014D80018BF0123B2E794F84030013B18BF01233D
:1014E800ACE7042805D0082807D0022384F8413047
:1014F800ABE7022384F83F30A7E7022384F84030A3
:10150800A3E79A6802F00702062A07D01A6842F091
:1015180001021A60002010BD0120FCE70020FAE754
:101528000000014038B5044690F83E00C0B294F877
:101538003F3094F84220D2B294F843C00D46B1B976
:10154800012849D1012A48D1022384F83E3084F881
:1015580042307DB3042D39D0012200212068FFF7E5
:1015680053FF012204212068FFF74EFF27E0DBB27A
:101578005FFA8CFC042912D0012833D1012B2CD11D
:10158800012A31D1BCF1010F30D1022384F83E3059
:1015980084F83F3084F8423084F84330D9E7012B8F
:1015A8001CD1BCF1010F1BD1022384F83F3084F811
:1015B8004330CEE7012200212068FFF725FF22688B
:1015C800136843F001031360002006E001220421A0
:1015D8002068FFF719FFF2E7012038BD0120FCE77A
:1015E8001846FAE70120F8E71846F6E71046F4E748
:1015F80090F83C20012A3DD010B40346012280F81F
:101608003C20022280F83D2002685068946820F04F
:10161800700C086840EA0C0050601A68164882424C
:101628001AD0B2F1804F17D0A0F57C40824213D077
:1016380000F5806082420FD000F5806082420BD0B6
:1016480000F57840824207D000F57050824203D0FE
:10165800A0F59430824204D124F0800449682143E3
:101668009160012283F83D20002083F83C005DF85A
:10167800044B70470220704700000140024690F872
:101688003C30012B21D0012380F83C30CB6823F477
:1016980040738868034323F480634868034323F452
:1016A80000630868034323F480530869034323F461
:1016B80000534869034323F48043C9690B43116805
:1016C8004B64002082F83C00704702207047704746
:1016D800704700002DE9F04782B005468846174656
:1016E8001E4600F06FFF0A9B1B1A03EB060900F069
:1016F80069FF8246284B1B68C3F3CB3309FB03F30E
:1017080001932B689C6838EA04040CBF012300236A
:10171800BB423DD0B6F1FF3FF3D000F053FFA0EB42
:101728000A00484503D2019B73BB9946E9E72A683A
:10173800536823F0E00353606B68B3F5827F0BD0E6
:10174800AB6AB3F5005F14D0012385F8513000234C
:1017580085F8503003201CE0AB68B3F5004F02D089
:10176800B3F5806FECD12A68136823F04003136047
:10177800E6E72A68136823F4005313602A6813689D
:1017880043F400531360DFE7019B013B0193B8E783
:10179800002002B0BDE8F0870800002070B584B0D2
:1017A80004460D46164600920B4601220221FFF719
:1017B80091FFD0B9174B1B68174AA2FB03235B0D97
:1017C8004FF47A7202FB03F303936368B3F5827FE5
:1017D80011D0039B3BB1039B013B039323689B6898
:1017E80013F0800FF5D104B070BD636D43F0200392
:1017F80063650320F7E700962B46002280212046E8
:10180800FFF768FF0028EED0636D43F0200363659F
:101818000320E8E708000020819F5E1600285AD0C0
:1018280010B50446436A33B94368B3F5827F05D0DF
:101838000023C36102E00023036143610023A36224
:1018480094F85130002B40D0022384F8513022689C
:10185800136823F040031360636803F48273A2687B
:1018680002F404421343E26802F40062134322695B
:1018780002F002021343626902F001021343A269F3
:1018880002F400721343E26902F038021343226A39
:1018980002F080021343A26A02F400522168134343
:1018A8000B60638B03F00403626A02F01002216884
:1018B80013434B602268D36923F40063D36100208B
:1018C8006065012384F8513010BD84F850302046FB
:1018D800FEF790FEB8E7012070472DE9F04383B08A
:1018E8000446884691461F460A9D00F06BFE064650
:1018F80094F851306268012B0BD0D9B2B2F5827FCF
:1019080040F00481A368002B40F00481042940F0D2
:101918000381B8F1000F00F00181B9F1000F00F068
:10192800FF80002F00F0FE8094F85030012B00F06B
:10193800FB80012384F8503094F85130042B02D0F6
:10194800052384F8513000236365C4F83890E7878D
:10195800A787C4F83080E786A78623646364236872
:101968001A6812F0400F03D11A6842F040021A6058
:10197800E368B3F5006F11D063680BB1012F0BD189
:10198800226B236812781A73236B01332363E38E67
:101998009BB2013B9BB2E386012771E063680BB100
:1019A800012F0BD1226B23681288DA60236B023374
:1019B8002363E38E9BB2013B9BB2E38601271BE0C6
:1019C80023689A6812F0010F0ED0E28F92B25AB1D2
:1019D800DA68A36B1A80A36B0233A363E38F9BB20D
:1019E800013B9BB2E387012700F0ECFD801BA84276
:1019F80002D3B5F1FF3F1ED1E38E9BB21BB9E38F33
:101A08009BB2002B62D023689A6812F0020FD7D0DD
:101A1800E28E92B2002AD3D0002FD1D0226B128846
:101A2800DA60236B02332363E38E9BB2013B9BB2E4
:101A3800E3860027C4E7012384F85130002384F8A3
:101A48005030032063E023689A6812F0010F0ED02B
:101A5800E28F92B25AB1DA68A36B1A70A36B0133A2
:101A6800A363E38F9BB2013B9BB2E387012700F09E
:101A7800A9FD831BAB4202D3B5F1FF3F1ED1EDB1E7
:101A8800E38E9BB213B9E38F9BB2FBB123689A68CC
:101A980012F0020FD7D0E28E92B2002AD3D0002FD4
:101AA800D1D0226B12781A73236B01332363E38E30
:101AB8009BB2013B9BB2E3860027C4E7012384F86D
:101AC8005130002384F85030032020E03246294664
:101AD8002046FFF763FE90B9A36833B901932368E2
:101AE800DA6801929B680193019B012384F85130C5
:101AF800002384F85030636D4BB1012007E02023A8
:101B08006365002384F85030012000E0022003B010
:101B1800BDE8F0830220FAE70220F8E70120F6E7A3
:101B28000120F4E70120F2E70220F0E7002800F0A6
:101B3800E08170B582B00446036813F0010F3BD012
:101B48009F4B9B6803F00C03042B2CD09C4B9B6889
:101B580003F00C03082B21D06368B3F5803F4FD006
:101B6800B3F5A02F52D0964B1A6822F480321A602F
:101B78001A6822F480221A606368002B50D000F0A3
:101B880021FD05468E4B1B6813F4003F14D100F06D
:101B980019FD401B6428F5D90320B1E1884B5B6827
:101BA80013F4800FD8D0864B1B6813F4003F03D082
:101BB8006368002B00F09F81236813F0020F54D054
:101BC8007F4B9B6813F00C0F3ED07D4B9B6803F056
:101BD8000C03082B33D0E368002B68D0794B012223
:101BE8001A6000F0EFFC0546754B1B6813F0020FF6
:101BF80054D100F0E7FC401B0228F5D903207FE10F
:101C08006F4A136843F480331360B5E76C4B1A6866
:101C180042F480221A601A6842F480321A60ABE7F4
:101C280000F0D0FC0546664B1B6813F4003FC3D098
:101C380000F0C8FC401B6428F5D9032060E1604B24
:101C48005B6813F4800FC6D15D4B1B6813F0020F5D
:101C580003D0E368012B40F05081594A136823F000
:101C6800F803216943EAC1031360236813F0080FDE
:101C780042D063696BB3534B0122C3F8802E00F046
:101C8800A1FC05464E4B5B6F13F0020F34D100F0F8
:101C980099FC401B0228F5D9032031E1484A136812
:101CA80023F0F803216943EAC1031360DDE7454BDC
:101CB80000221A6000F086FC0546414B1B6813F0B1
:101CC800020FD2D000F07EFC401B0228F5D9032079
:101CD80016E13C4B0022C3F8802E00F073FC054649
:101CE800374B5B6F13F0020F06D000F06BFC401B04
:101CF8000228F5D9032003E1236813F0040F77D0F5
:101D08002F4B1B6C13F0805F33D1002301932C4BB6
:101D18001A6C42F080521A641B6C03F080530193D2
:101D2800019B0125284B1B6813F4807F23D0A368EF
:101D3800012B34D0052B38D0214B1A6F22F0010229
:101D48001A671A6F22F004021A67A368002B3DD0A5
:101D580000F038FC06461A4B1B6F13F0020F46D1F1
:101D680000F030FC801B41F288339842F3D90320FD
:101D7800C6E00025D6E7144A136843F4807313605D
:101D880000F020FC0646104B1B6813F4807FCED170
:101D980000F018FC801B0228F5D90320B0E0084A9F
:101DA800136F43F001031367CFE7054B1A6F42F037
:101DB80004021A671A6F42F001021A67C5E700BFEA
:101DC80000380240000047420070004000F0FAFB73
:101DD8000646524B1B6F13F0020F08D000F0F2FBBF
:101DE800801B41F288339842F3D9032088E0EDB98B
:101DF800A369002B00F08380484A926802F00C0225
:101E0800082A51D0022B17D0454B00221A6600F041
:101E1800D9FB0446414B1B6813F0007F42D000F009
:101E2800D1FB001B0228F5D9032069E03B4A136C5B
:101E380023F080531364DBE7394B00221A6600F065
:101E4800C1FB0546354B1B6813F0007F06D000F038
:101E5800B9FB401B0228F5D9032051E0E369226A47
:101E68001343626A43EA8213A26A5208013A43EAB8
:101E78000243E26A43EA0263284A5360284B01227C
:101E88001A6600F09FFB0446244B1B6813F0007F82
:101E980006D100F097FB001B0228F5D903202FE09C
:101EA80000202DE000202BE0012B2BD01B4B5B6882
:101EB80003F48001E269914226D103F03F02216ACE
:101EC8008A4223D1616A47F6C0721A40B2EB811F79
:101ED8001ED103F44031A26A5208013AB1EB024F15
:101EE80018D103F07063E26AB3EB026F14D10020DB
:101EF80006E001207047012002E0012000E00020F8
:101F080002B070BD0120FBE70120F9E70120F7E7E7
:101F18000120F5E70120F3E70120F1E7003802404E
:101F28000000474208B5334B9B6803F00C03042BB1
:101F38005BD0082B5BD12F4B5A6802F03F025B68DD
:101F480013F4800F2CD02B4B5868C0F388104FEA3D
:101F5800401CBCEB000C6EEB0E0E4FEA8E1343EAEE
:101F68009C634FEA8C11B1EB0C0163EB0E03DB00B1
:101F780043EA5173C90011EB000C43F10003590205
:101F880000234FEA4C2041EADC51FEF7F9F8194BDF
:101F98005B68C3F3014301335B00B0FBF3F008BD9A
:101FA800144B5868C0F388104FEA401CBCEB000C77
:101FB8006EEB0E0E4FEA8E1343EA9C634FEA8C11C8
:101FC800B1EB0C0163EB0E03DB0043EA5173C9006C
:101FD80011EB000C43F10003990200234FEA8C2017
:101FE80041EA9C51FEF7CCF8D1E70348D7E703480C
:101FF800D5E700BF0038024000127A000024F40040
:10200800002800F09B8070B50D4604464F4B1B68B6
:1020180003F007038B4208D2CBB24C4A1370136803
:1020280003F007038B4240F08B80236813F0020F04
:1020380017D013F0040F04D0454A936843F4E053D3
:102048009360236813F0080F04D0414A936843F45F
:10205800604393603E4A936823F0F003A1680B4302
:102068009360236813F0010F32D06368012B21D0ED
:102078009A1E012A25D9364A126812F0020F61D039
:1020880033498A6822F0030213438B6000F09AFAFE
:1020980006462F4B9B6803F00C036268B3EB820F74
:1020A80016D000F08FFA801B41F288339842F0D99D
:1020B800032042E0264A126812F4003FE0D10120D2
:1020C8003BE0234A126812F0007FD9D1012034E0A6
:1020D8001E4B1B6803F00703AB4207D9EAB21B4B40
:1020E8001A701B6803F00703AB422DD1236813F065
:1020F800040F06D0164A936823F4E053E1680B43B3
:102108009360236813F0080F07D0114A936823F4EB
:102118006043216943EAC1039360FFF703FF0C4B57
:102128009B68C3F303130B4AD35CD8400A4B18606F
:102138000A4B1868FEF7C8FD002070BD01207047E3
:102148000120FAE70120F8E70120F6E7003C024009
:102158000038024020500008080000200400002039
:10216800014B1868704700BF0800002008B5FFF74A
:10217800F7FF044B9B68C3F38223034AD35CD84020
:1021880008BD00BF003802401850000808B5FFF726
:10219800E7FF044B9B68C3F34233034AD35CD84040
:1021A80008BD00BF00380240185000080F23036024
:1021B8000B4B9A6802F0030242609A6802F0F00240
:1021C80082609A6802F4E052C2609B68DB0803F4FC
:1021D800E0530361034B1B6803F007030B60704770
:1021E80000380240003C024000230F2B00F2E98037
:1021F80070B582B065E085684FEA430E032404FA9F
:102208000EF425EA0405CC6804FA0EF42C43846025
:10221800446824EA02044A68C2F300129A4022433E
:1022280042605CE0DC08083450F8242003F007051D
:10223800AD004FF00F0E0EFA05FE22EA0E0E0A69E7
:10224800AA4042EA0E0240F824205CE0072200E09F
:10225800002202FA0EF22A4302345A4D45F824208D
:10226800594A94686FEA0C0224EA0C054E6816F481
:10227800801F01D04CEA0405534CA560E46802EACB
:1022880004054E6816F4001F01D04CEA04054E4CB4
:10229800E560646802EA04054E6816F4003F01D060
:1022A8004CEA0405484C6560246822404D6815F4E2
:1022B800803F01D04CEA0402434C226001330F2BCB
:1022C8007DD801229A400C6804EA020C32EA040420
:1022D800F4D14C6804F00304013C012C8BD94A6802
:1022E80002F00302032A09D0C4685D000322AA4051
:1022F80024EA02048A68AA402243C2604A6802F0BB
:102308000302022A8ED004684FEA430E032202FA1F
:102318000EF224EA02044A6802F0030202FA0EF2FC
:10232800224302604A6812F4403FC7D0002201925B
:10233800264A546C44F480445464526C02F480423B
:102348000192019A9C08A51C1E4A52F8255003F0D8
:10235800030E4FEA8E0E0F2202FA0EF225EA02054C
:102368001B4A90423FF474AF02F5806290421AD043
:1023780002F58062904218D002F58062904216D031
:1023880002F58062904214D002F58062904212D029
:1023980002F58062904210D002F5806290423FF4CC
:1023A80055AF082255E7012253E7022251E70322DD
:1023B8004FE704224DE705224BE7062249E702B022
:1023C80070BD704700380140003C014000380240B1
:1023D800000002400AB181617047090481617047B9
:1023E800436901EA030221EA030141EA02418161EA
:1023F800704770B50446866D00F0E4F894F83530FF
:10240800022B06D080236365002384F83430012032
:1024180070BD05462268136823F01603136022680E
:10242800536923F080035361236CE3B12268136876
:1024380023F0080313602268136823F00103136074
:1024480023681B6813F0010F11D000F0BBF8431B81
:10245800052BF5D920236365032084F83500002374
:1024680084F83430D4E7A36C002BDFD1E3E7E26DC6
:102478003F239340B360012384F83530002084F86B
:102488003400C5E790F83530022B03D0802343652C
:1024980001207047052380F835300268136823F05F
:1024A8000103136000207047002807DB00F01F02BB
:1024B800400901239340024A42F82030704700BF88
:1024C80000E100E0002808DB0901C9B200F1604022
:1024D80000F5614080F80013704700F00F00090113
:1024E800C9B2014B1954704714ED00E000B500F073
:1024F8000700C0F1070CBCF1040F28BF4FF0040C13
:10250800031D062B0FD9C31E4FF0FF3E0EFA0CF029
:1025180021EA000199400EFA03FE22EA0E0241EA7E
:1025280002005DF804FB0023EEE70000074AD368C9
:1025380023F4E0631B041B0C000200F4E060034377
:1025480043F0BF6343F40033D360704700ED00E00D
:1025580010B50446054BD868C0F30220FFF7C6FF44
:1025680001462046FFF7AEFF10BD00BF00ED00E0BA
:1025780008B5FFF799FF08BD08B50B4B1A6842F478
:1025880000721A601A6842F480621A601A6842F48B
:1025980080721A600320FFF7C9FF0F20FEF794FB33
:1025A800FEF776FB002008BD003C0240034A116894
:1025B800034B1B780B441360704700BF580400207E
:1025C80000000020014B1868704700BF5804002025
:1025D80038B50446FFF7F6FF0546B4F1FF3F02D0D1
:1025E800044B1B781C44FFF7EDFF401BA042FAD3B5
:1025F80038BD00BF00000020026802F10C0353E858
:10260800003F23F490730C3242E800310029F3D1E3
:10261800026802F1140353E8003F23F00103143267
:1026280042E800310029F3D1036B012B05D02023A8
:1026380080F84230002303637047026802F10C03FC
:1026480053E8003F23F010030C3242E80031002920
:10265800F3D1ECE790F84130212B01D002207047EC
:102668008368B3F5805F17D0036A5A1C02621A7830
:1026780003685A60C38C9BB2013B9BB2C3844BB9BD
:102688000268D36823F08003D3600268D36843F0FC
:102698004003D360002070470369002BE4D1036A2C
:1026A8001B880268C3F308035360036A023303629A
:1026B800E0E7000010B504460268136923F44053AC
:1026C800C1680B431361836802691A4343691A435B
:1026D800C3691A430168CB6823F4164323F00C033B
:1026E8001343CB600268536923F4407381690B4339
:1026F80053610368314A934206D002F580629342DF
:1027080002D0FFF733FD01E0FFF740FDE369B3F5C1
:10271800004F29D00021031849411B1841F100013D
:10272800C90041EA5371DB00181863684FEA830255
:102738004FEA937341F10001FDF722FD204AA2FB05
:1027480000314909642303FB11031B013233A2FB47
:1027580003235B0903F0F00202EB011203F00F03FD
:10276800216813448B6010BD0023021843EB03015A
:10277800121841F10001C90041EA5271D200101843
:1027880041F10001626892185B41FDF7F9FC0C4ABF
:10279800A2FB00314909642303FB1103DB00323338
:1027A800A2FB03235B095A0002F4F87202EB011240
:1027B80003F00703216813448B60D4E7001001403D
:1027C8001F85EB512DE9F04383B005460E461746A9
:1027D8009946DDF828802B681C6836EA04040CBF8B
:1027E80001240024BC4228D1B8F1FF3FF3D0FFF701
:1027F800E9FEA0EB0900404523D8B8F1000F22D02C
:102808002B68DA6812F0040FE5D0802EE3D0402E52
:10281800E1D01A6812F0080FDDD0002401941A687C
:1028280001925B680193019B2846FFF7E5FE0823A8
:102838006B6485F84040012000E0002003B0BDE84B
:10284800F0830320FAE70320F8E760B310B50446E5
:1028580090F8413013B3242384F841302268D368B8
:1028680023F40053D3602046FFF724FF226813693E
:1028780023F4904313612268536923F02A035361B8
:102888002268D36843F40053D36000206064202397
:1028980084F8413084F84230606310BD80F84030DD
:1028A800FEF730F9D7E7012070472DE9F04182B0F3
:1028B8001E4690F84130202B56D104460D469046CE
:1028C800002955D00AB901204FE000234364212391
:1028D80080F84130FFF776FE0746A4F82480A4F874
:1028E8002680A368B3F5805F02D04FF0000814E09B
:1028F80023692BB34FF000080FE0202384F8413000
:10290800032032E038F8023B2268C3F3080353601F
:10291800E28C92B2013A92B2E284E38C9BB293B118
:1029280000963B46002280212046FFF74BFF0028F7
:10293800E3D1002DE6D015F8012B23685A60E7E7AC
:10294800A8460025E9E700963B460022402120469C
:10295800FFF738FF18B9202384F8413005E0202319
:1029680084F84130032000E0022002B0BDE8F08185
:102978000120FAE7704708B50168CA6822F04002EA
:10298800CA60202280F84120FFF7F4FF002008BD2C
:102998007047704708B5806B0023C385FFF7F9FFC0
:1029A80008BD704790F84230222B69D18368B3F58F
:1029B800805F4FD0826AB3F5805F04D0002B56D178
:1029C8000369002B53D103685B681370836A013372
:1029D8008362C38D9BB2013B9BB2C385002B51D14F
:1029E80000B583B00268D36823F02003D36002687F
:1029F800D36823F48073D3600268536923F001031A
:102A08005361202380F8423000234363036B012B7A
:102A180033D100230363026802F10C0353E8003F3B
:102A280023F010030C3242E800310029F3D1036887
:102A38001A6812F0100F06D0002201921A6801924B
:102A48005B680193019B818DFFF7ABFF002003B00A
:102A58005DF804FB0269002AACD1826A03685B68EE
:102A6800C3F308031380836A02338362B1E7036800
:102A78005B6803F07F031370A8E7FFF789FFE5E7BA
:102A8800022070470020704710B582B004460268E3
:102A98001368D068516913F00F0F09D113F0200F94
:102AA8000CD010F0200F09D02046FFF77BFF16E06E
:102AB80011F0010115D110F4907F12D1216B012979
:102AC80079D013F0800F03D010F0800F40F02181EF
:102AD80013F0400F03D010F0400F40F01E8102B0F9
:102AE80010BD13F0010F06D010F4807F03D0626C84
:102AF80042F00102626413F0040F04D019B1626C51
:102B080042F00202626413F0020F04D019B1626C41
:102B180042F00402626413F0080F07D010F0200F8F
:102B280000D119B1626C42F008026264626C002A3A
:102B3800D5D013F0200F02D010F0200F29D1236830
:102B48005B6903F04003626C12F0080F00D163B3B5
:102B58002046FFF751FD23685B6913F0400F20D032
:102B6800226802F1140353E8003F23F040031432B3
:102B780042E800310029F3D1E36B73B1694A1A6561
:102B8800E06BFFF77FFC0028A9D0E06B036D984746
:102B9800A5E72046FFF706FFD1E72046FFF7F9FE35
:102BA8009DE72046FFF7F5FE99E72046FFF7F1FE7F
:102BB8000023636493E713F0100F82D010F0100F16
:102BC8003FF47FAF00230193136801935368019387
:102BD800019B536913F0400F5FD0E26B13685B6889
:102BE8009BB2002B4AD0A18D994247D9E385D3697E
:102BF800B3F5807F37D0226802F10C0353E8003F19
:102C080023F480730C3242E800310029F3D12268A2
:102C180002F1140353E8003F23F00103143242E8A1
:102C280000310029F3D1226802F1140353E8003F70
:102C380023F04003143242E800310029F3D1202365
:102C480084F8423000232363226802F10C0353E81E
:102C5800003F23F010030C3242E800310029F3D181
:102C6800E06BFFF7C6FB02236363A18DE38D9BB284
:102C7800C91A89B22046FFF794FE30E7A18D994220
:102C88007FF42DAFD369B3F5807F7FF428AF02239B
:102C980063632046FFF785FE21E7A18DE38D9BB294
:102CA800C91A89B2E38D9BB2002B3FF418AF0029F3
:102CB8003FF415AF226802F10C0353E8003F23F4F8
:102CC80090730C3242E800300028F3D1226802F1F8
:102CD800140353E8003F23F00103143242E80030A4
:102CE8000028F3D1202384F842300023236322688C
:102CF80002F10C0353E8003F23F010030C3242E8C2
:102D080000300028F3D1022363632046FFF749FE11
:102D1800E5E62046FFF79EFCE1E62046FFF72BFE9E
:102D2800DDE600BF9D290008034AD2F8883043F445
:102D38007003C2F88830704700ED00E008B50B4812
:102D48000B4B03600B4B436000238360C3604FF45D
:102D58008042026143618361C361036201F0B8F993
:102D680000B908BDFDF7FEFAFBE700BF5C040020D0
:102D780000580040A086010030B589B000230393B5
:102D880004930593069307930268144B9A4201D063
:102D980009B030BD00250195114C236B43F00203A7
:102DA8002363236B03F002030193019B4FF44063F9
:102DB800039312230493032306930423079303A97D
:102DC8000848FFF711FA0295236C43F48003236443
:102DD800236C03F480030293029BD9E70058004058
:102DE800003802400004024000B587B002468DF862
:102DF80017104FF0FF330293012301930DF11701D0
:102E08000091D021024801F041FA07B05DF804FBB7
:102E18005C04002000B587B002464FF0FF330293F0
:102E2800012301930DF117010091D021034801F00E
:102E3800DDFA9DF8170007B05DF804FB5C0400207C
:102E480008B501216B20FFF7CFFF00216C20FFF7A9
:102E5800CBFF09211920FFF7C7FF06211A20FFF72A
:102E6800C3FF18211B20FFF7BFFF18211C20FFF705
:102E7800BBFF08BD2DE9F04107460E4615461C4626
:102E88003B20FFF7C7FF80463C20FFF7C3FF40EA1F
:102E9800082038803D20FFF7BDFF07463E20FFF79A
:102EA800B9FF40EA072030803F20FFF7B3FF06460E
:102EB8004020FFF7AFFF40EA062028804320FFF7B5
:102EC800A9FF05464420FFF7A5FF40EA052020801A
:102ED8004520FFF79FFF04464620FFF79BFF40EA87
:102EE8000420069B18804720FFF794FF04464820DB
:102EF800FFF790FF40EA0420079B1880BDE8F081A7
:102F0800F6EE007A60EE277A10EE103A074AA2EB46
:102F1800630307EE103A67EE277A67EE277AB7EE73
:102F2800080A30EE670A27EE000A7047DF59375F54
:102F380010B52DED068B0446B0EE409AF0EE609A7F
:102F4800B0EE418AF0EE618AB0EE42AAF0EE62AAD3
:102F5800F5EE401AF1EE10FA0AD1B5EE402AF1EE7C
:102F680010FA05D1F5EE402AF1EE10FA00F0938040
:102F780068EEA87A2AEE0A7A77EE877A2AEEAA0A03
:102F880037EE800AFFF7BCFF68EE808A2AEE00AAB7
:102F98006AEE80AA94ED017AD4ED036A27EE266AD8
:102FA800D4ED007AD4ED025A27EEA55A36EE456ADA
:102FB80027EE277A66EEA55A37EE257A67EEA77AC6
:102FC800F6EE005A77EEE57A66EEA66A77EEA67A0E
:102FD8006AEE275A6AEE876A75EEE65A6AEE86AA9C
:102FE80068EEA77A7AEEE7AA68EE878A2AEE06AA3A
:102FF80078EECA8A614BD3ED007AF5EEC07AF1EE2D
:1030080010FA40F3B380D3ED007A67EEA57A9FED0E
:103018005C7A67EE877A5B49D1ED006A76EEA77A2B
:10302800C1ED007AD3ED007A67EEAA7A67EE877A67
:10303800554AD2ED006A76EEA77AC2ED007AD3ED52
:10304800007A67EEA87A67EE877A504B93ED007A9C
:1030580077EE277AC3ED007AD1ED007A39EE279A18
:10306800D2ED007A79EEA79AD3ED007A38EE278A66
:10307800474BD3ED007A67EEA57A39EE279AD3ED60
:10308800007A67EEAAAA79EEAA9AD3ED007A67EEDB
:10309800A87A38EE278ADFED3F7A29EE270A69EE0B
:1030A800A70A28EE271AD4ED006A94ED017AD4ED28
:1030B800027A27EE409A20EEA76A39EE469AD4EDB6
:1030C800039A29EE816A39EE469A39EE269A84EDFA
:1030D800009A60EE268A21EE276A78EE868A29EE23
:1030E800A06A78EEC68A78EE878AC4ED018A20EE57
:1030F800A68A21EE076A38EE468A29EE806A38EEFB
:10310800068A38EE278A84ED028A21EE261A60EEB6
:10311800870A31EE201A20EE270A31EE401A79EE9E
:10312800819AC4ED039A69EE097A28EEA87A77EEB7
:10313800877A28EE087A77EE877A29EEA90A37EE99
:10314800800AFFF7DDFE29EE009A84ED009A68EE0A
:10315800808AC4ED018A28EE008A84ED028A69EE2D
:10316800809AC4ED039ABDEC068B10BD0023054A76
:103178001360054A1360054A136079E710000020C0
:103188000AD7A33BB8040020B4040020B0040020F0
:10319800140000200AD7233BF8B52DED028B044616
:1031A8000F4616461D4690ED000AD0ED010A20EEA6
:1031B800200AD0ED027A90ED037A27EE877A30EE76
:1031C800070A60EEA00A67EEA77A70EEA70A70EE0B
:1031D800A00AB7EE008A78EE600A30EE000A01F025
:1031E80009FB87ED000A94ED000AD4ED027A20EE7F
:1031F800270AD4ED037A94ED017A67EE877A30EEE8
:10320800670A30EE000AB4EEC80AF1EE10FA3CDDA7
:10321800B7EE000A01F0C2FA86ED000A94ED000A42
:10322800D4ED037A20EE270A94ED017AD4ED020A50
:1032380027EE207A30EE070A60EEA00A67EEA77A3A
:1032480070EEA70A70EEA00AF7EE007A77EEE00AB1
:1032580030EE000A01F0CEFA85ED000AD7ED007ACB
:103268009FED0F7A67EE877AC7ED007AD6ED007A80
:1032780067EE877AC6ED007AD5ED007A67EE877A31
:10328800C5ED007ABDEC028BF8BDFFEE007AB4EE16
:10329800E70AF1EE10FABDD5BFEE000ABAE700BFA3
:1032A800E12E65422A4B1B78032B4CD8DFE803F04C
:1032B800020F3037A52801D0002070470020254B89
:1032C8001870254B1870224B01221A70704721493B
:1032D8000A78531CDBB20B70204988540F2B34D961
:1032E8001B4B02221A70002070471C4AD25C1A49F4
:1032F80091F800C062440A700133DBB20F2BF4D995
:10330800154B1B78834205D00020114B187070476D
:103318000023F3E70E4B03221A70002070475A2847
:1033280003D000200A4B187070470C4B1A680A60CB
:103338005A684A609A688A60DB68CB60044B00224E
:103348001A7001207047002070470020704700BFA6
:10335800E0040020CD040020CC040020D00400208C
:10336800A5230B700368C1F801304368C1F8053024
:103378008368C1F80930C368C1F80D300369C1F822
:1033880011304369C1F815308369C1F81930C36930
:10339800C1F81D3000231A4604E00133C85C02441A
:1033A800D2B2DBB21F2BF8D981F821205A2381F839
:1033B800223023207047000070B582B0FDF7E2FB91
:1033C8000DF1070100F0EEFA40B9FFF7FBF8284BC2
:1033D8001B68C01A63281ED802B070BD25499DF825
:1033E8000700FFF75FFF0028EFD0002510E0EEB2DE
:1033F800204C94ED031AD4ED020A94ED010A3046EC
:1034080000F0DEF994ED000A304600F0CBF9013502
:10341800032DECDDD9E7FFF7D5F8154B1860164BEF
:103428001B68164C2360164BDB68E360002000F035
:10343800D5F984ED040A134B1B786360124B1B7893
:10344800A360124B1B686361114B1B68A361114B8E
:103458001B68E361104D29462046FFF781FF0246AD
:103468000E4B1870642329460D48FFF71EFAB3E780
:10347800C8040020E800002004030020C800002041
:103488002806002069060020680600209800002011
:103498009400002090000020A4000020A00000203C
:1034A800B802002008B503460846196000225A6091
:1034B8001A810022DA603C21FEF734F808BD03685F
:1034C8001B685A6A0389D31A416801FA83F3436077
:1034D800028170474068704738B5054644F29F132B
:1034E800994205DC0C46234B994203DA214C03E050
:1034F80044F29F14002C12DC002C1CDB0022A9884B
:103508002868FEF767FF0022A989A868FEF762FF0E
:1035180000246B69EBB92B691B685C6338BD012219
:10352800A9882868FEF756FF0022A989A868FEF72F
:1035380051FFA4B2EDE70022A9882868FEF74AFFE8
:103548000122A989A868FEF745FFA4B26442A4B283
:10355800DFE7042B05D0082B07D02B691B681C64F8
:10356800DCE72B691B689C63D8E72B691B68DC6365
:10357800D4E700BF61BEFFFF08B50021FFF7ACFF2D
:1035880008BD00002DE9F041284B294A1A604FF484
:10359800804199809A604FF400419981254D1D61C1
:1035A80000245C619A61012199831A62022199843D
:1035B8009D620827DF621A634FF4805199869A63E7
:1035C8004FF400529A871D644FF00408C3F84480F2
:1035D80002F1804202F5F2329A644FF48071A3F846
:1035E8004C101A654FF40072A3F854209D650C2600
:1035F800DE6521462846FDF717FF41462846FDF7B8
:1036080013FF39462846FDF70FFF31462846FDF7D8
:103618000BFF07E004EB4402D30004481844FFF70B
:10362800ABFF0134032CF5DDBDE8F081E404002094
:10363800001002405001002038B52DED028B194CC6
:1036480019492046FFF72EFF184904F11000FFF72B
:1036580029FF174904F12000FFF724FF154904F159
:103668003000FFF71FFF002517E005EB45031C019D
:10367800114B1C449FED118ADFED111AB0EE481A68
:10368800F0EE480AB0EE480A204600F0C1F8B0EE65
:10369800480A204600F064F90135032DE5DDBDEC4C
:1036A800028B38BD28060020700200202802002066
:1036B800E0010020980100206805002000000000BB
:1036C800003E834638B5002432E01B4D05EB041557
:1036D8002846FFF7F4FE2846FFF7FCFE174A52F883
:1036E8002430C31A42F8240007EE903AF8EEE77A3D
:1036F8009FED137AC7EE876ADFED127A86EEA77A16
:10370800DFED117A27EE277A104B03EB8403D3ED14
:10371800007ADFED0F6A67EEA67ADFED0E6A27EE14
:10372800267A77EE877AC3ED007AC5ED037A0134FD
:10373800032CCADD38BD00BF280600205405002030
:103748000080A244CDCC4C3D0000704244050020CE
:103758003333333F9A99993E38B5FFF7B3FF0024C6
:1037680017E00D4B03EB0413650004EB440093EDE5
:10377800030A0A4B03EB001000F06EF82544FDEE37
:10378800C07A17EE901A064800EBC500FFF7A4FEB2
:103798000134032CE5DD38BD28060020680500202B
:1037A800E4040020032800D9704708B500EB400066
:1037B800024B03EB001000F0D3F808BD68050020A9
:1037C800032800D9704708B500EB4000024B03EB13
:1037D800001000F0C8F808BD68050020032802D9C9
:1037E8009FED080A704700EB4002074B03EB0213FA
:1037F80093ED030A054B03EB0013D3ED037A30EE88
:10380800670A7047000000006805002028060020AD
:10381800F8B52DED028B044610EE107A10EE906A82
:1038280011EE105AB0EE618A3022002100F083FFB9
:1038380027606660A56084ED088AF1EE487AC4EDD9
:10384800097ADFED047A28EE278A84ED0B8ABDEC2D
:10385800028BF8BD9A99993E90ED037A37EE400AAB
:10386800D0ED056AC0ED066AD0ED047AC0ED057AA0
:1038780080ED040AB0EEC06AF1EE085AB4EEE56ACB
:10388800F1EE10FA11D500238362B0EEC77AF2EE9A
:10389800047AB4EEE77AF1EE10FA03D500EE103AA6
:1038A800C361704790ED070A7047D0ED085AB6EE2D
:1038B800007A25EE877AB4EEC76AF1EE10FA1AD5C7
:1038C80090ED0A6A36EE006A80ED0A6A90ED0B7A8E
:1038D800B4EEC76AF1EE10FA01DD80ED0A7A90EDD8
:1038E8000A6AB1EE477AB4EEC76AF1EE10FA04D567
:1038F80080ED0A7A01E00023836290ED007A30EED1
:10390800676A27EE067A90ED016A26EE006A37EEBE
:10391800067A90ED026A77EEA77A30EE670A76EEBD
:10392800806A66EE267A77EE277A90ED077A77EE48
:10393800277AC0ED077AF4EEE75AF1EE10FA01D5CE
:10394800C0ED075A90ED077AD0ED097AB4EEE77A20
:10395800F1EE10FA01D5C0ED077A90ED070A70472D
:1039680080ED030A704780ED000AC0ED010A80ED82
:10397800021A7047B0F800319BB201335A42DBB2E9
:10398800D2B258BF53429BB2B0F802219A4207D034
:10399800B0F8002192B28154A0F80031012070479C
:1039A80000207047B0F80221B0F800319BB29A426B
:1039B8000DD0835C0B70B0F8023101335A42DBB290
:1039C800D2B258BF5342A0F80231012070470020FC
:1039D8007047000008B5034BD8611846FDF71EFF75
:1039E80008BD00BFF800002000B587B08DF80F00B3
:1039F8006423009301230DF117020DF10F01044810
:103A0800FDF76BFF9DF8170007B05DF804FB00BFDA
:103A1800F8000020F8B505460C46164600224FF47B
:103A280080510C48FEF7D6FC2846FFF7DDFF074615
:103A3800002505E014F8010BFFF7D6FF0135EDB2BC
:103A4800B542F7D301224FF480510248FEF7C2FC79
:103A58003846F8BD00040240F8B504460E4615463F
:103A680000224FF480510C48FEF7B4FC2046FFF7C3
:103A7800BBFF0746002405E0FF20FFF7B5FF3055E0
:103A88000134E4B2AC42F7D301224FF4805102482A
:103A9800FEF7A0FC3846F8BD0004024070B50446A5
:103AA8000D460B4E00224FF480513046FEF792FC33
:103AB8002046FFF799FF04462846FFF795FF0122A5
:103AC8004FF480513046FEF785FC204670BD00BF9C
:103AD8000004024010B582B0134B93E80300009035
:103AE8008DF804102020FFF775FF05226946302065
:103AF800FFF790FF052269461020FFF7ADFF00236E
:103B0800042B09D803F108026A4412F8082CA52AE4
:103B180002D10133DBB2F3E7052B02D1002002B05A
:103B280010BD0120FBE700BF3050000810B5154C50
:103B380000224FF400412046FEF74CFC05221249B2
:103B48002A20FFF767FF01212120FFF7A7FF0121A6
:103B58002220FFF7A3FF1E212520FFF79FFF20212A
:103B68003120FFF79BFF0F212620FFF797FF0F213A
:103B78002020FFF793FF01224FF400412046FEF773
:103B880029FC10BD000C02401800002008B507E011
:103B980020210948FEF724FC4FF47A70FEF718FD3F
:103BA800FFF798FF0028F3D1FFF7C0FF012220217B
:103BB8000148FEF70FFC08BD000C024003685A6973
:103BC80012F4806F01D1002070476FF480625A614F
:103BD80000230363202280F83D2080F83E30026CE9
:103BE80042F00402026480F83C30012070472DE95D
:103BF800F04106460C46174698463BE0FEF7E2FCC5
:103C0800069BC01A404502D8B8F1000F32D1012DE9
:103C180018D033689B6924EA03039BB2B3FA83F391
:103C28005B099F4226D100233363202286F83D207A
:103C380086F83E30326C42F02002326486F83C301E
:103C4800012027E033685B6924EA03039BB2B3FAD7
:103C580083F35B09E5E733685B6924EA030C1FFA21
:103C68008CFCBCFA8CFC4FEA5C1C674511D1B8F19E
:103C7800FF3FC3D1C4F30745012DECD033689B69DE
:103C880024EA030C1FFA8CFCBCFA8CFC4FEA5C1C7F
:103C9800EBE70020BDE8F0812DE9F84305460E4624
:103CA8009046994653E01A6842F400721A602B68ED
:103CB8006FF480625A6100232B63202285F83D202F
:103CC80085F83E302A6C42F004022A6485F83C30BC
:103CD80001204AE0FEF776FCA0EB0900404502D837
:103CE800B8F1000F33D1012F17D02B689B6926EA52
:103CF80003039BB2003B18BF012343B300232B638C
:103D0800202285F83D2085F83E302A6C42F02002BA
:103D18002A6485F83C30012027E02B685B6926EA95
:103D280003039BB2003B18BF0123E6E72B689C699D
:103D380026EA0404A4B2003C18BF0124A4B12B68ED
:103D48005A6912F4806FAED1B8F1FF3FC2D1C6F301
:103D58000747012FEAD12B685C6926EA0404A4B25C
:103D6800003C18BF0124E9E70020BDE8F88370B5DE
:103D780004460D46164623685B6913F0800F21D16F
:103D88002046FFF71BFFF8B9B5F1FF3FF3D0FEF768
:103D980019FC801BA84201D8002DECD123685B696F
:103DA80013F0800FE7D100232363202284F83D20FD
:103DB80084F83E30226C42F02002226484F83C30C1
:103DC800012000E0002070BD0120FCE72DE9F04350
:103DD80085B004460D4691461F46DDF830800D9E9D
:103DE8000368196841F480711960009643460022FF
:103DF8004FF00111FFF7FBFE60B9236805F0FE05DF
:103E08001D613346424626492046FFF745FF68B103
:103E1800012008E023681B6813F4807F02D04FF468
:103E280000732364032005B0BDE8F08300230393E7
:103E380023685A6903929B690393039B3246414660
:103E48002046FFF794FF30B9012F0FD123685FFA9E
:103E580089F61E61E7E7236C042B01D00120E2E715
:103E68002268136843F400731360F7E723684FEA86
:103E780019221A61324641462046FFF778FF20B9D9
:103E880023685FFA89F61E61CDE7236C042B01D005
:103E98000120C8E72268136843F400731360F7E74A
:103EA800020001002DE9F04784B004460D4616468D
:103EB80099460C9FDDF834800268136843F48063E8
:103EC80013600368196841F480711960CDF80080A7
:103ED8003B4600224FF00111FFF789FE70B95FFAE7
:103EE80085FA236805F0FE051D6143463A464149B7
:103EF8002046FFF7D1FE68B1012008E023681B685F
:103F080013F4807F02D04FF400732364032004B0BD
:103F1800BDE8F0870023039323685A6903929B69DD
:103F28000393039B424639462046FFF720FF80B99A
:103F3800B9F1010F18D12368F6B21E61424639461D
:103F48002046FFF714FF68B3236C042B24D001200C
:103F5800DDE7236C042B01D00120D8E72268136821
:103F680043F400731360F7E72368320A1A61424684
:103F780039462046FFF7FBFE18B92368F6B21E61E2
:103F8800DCE7236C042B01D00120C0E7226813680A
:103F980043F400731360F7E72268136843F400736F
:103FA8001360D4E72268136843F480731360CDF874
:103FB80000803B4600224FF001112046FFF717FE14
:103FC80068B922684AF00103136143463A46094931
:103FD8002046FFF761FE002899D0012097E7236863
:103FE8001B6813F4807F02D04FF40073236403200E
:103FF8008DE700BF0200010070B504460D46164665
:1040080023685B6913F0040F21D12046FFF7D6FD22
:10401800F8B9B5F1FF3FF3D0FEF7D4FA801BA842F8
:1040280001D8002DECD123685B6913F0040FE7D1A8
:1040380000232363202284F83D2084F83E30226C3C
:1040480042F02002226484F83C30012000E0002085
:1040580070BD0120FCE770B504460D46164614E015
:104068006FF010025A6100232363202284F83D2058
:1040780084F83E30226C226484F83C30012025E02C
:1040880023685B6913F0400F10D02368586910F05B
:10409800400F1AD1586910F0100FE1D1FEF792FACB
:1040A800801BA842ECD8002DEFD1E9E70023236359
:1040B800202284F83D2084F83E30226C42F0200211
:1040C800226484F83C30012000E0002070BD00002C
:1040D800002800F0CC8070B5044690F83D30002BE5
:1040E80077D0242384F83D302268136823F0010335
:1040F80013602268136843F400431360226813684E
:1041080023F400431360FEF731F862685A4B9A4271
:1041180064D85A4B98428CBF00230123002B40F0EF
:10412800A8805749A1FB00318B0C25686A6822F0EA
:104138003F0242EA91426A6021680A6A22F03F021D
:1041480066684D4DAE424FD8013313430B62216868
:10415800CA6922F44F4222F0FF026568464B9D422D
:104168004CD8431E6D00B3FBF5F3013340F6FC70E9
:10417800034278D0C3F30B031A43CA6121680B6862
:1041880023F0C003E269206A024313430B602168ED
:104198008B6823F4034323F0FF032269E06802439A
:1041A80013438B602168CB6823F0FF036269A06921
:1041B80002431343CB602268136843F00103136082
:1041C80000202064202384F83D30206384F83E00DA
:1041D80070BD80F83C30FEF7CFFD82E7294B98424E
:1041E8008CBF0023012399E74FF4967505FB03F371
:1041F800254DA5FB03539B090133A6E7A668BEB965
:10420800431E05EB450CB3FBFCF30133C3F30B036F
:10421800B3FA83F35B0943BBC6B9431E05EB4505F7
:10422800B3FBF5F30133C3F30B0343F40043A3E7F4
:10423800431E05EB850C0CEB8C0CB3FBFCF3013334
:10424800C3F30B03B3FA83F35B09E4E7431E05EBFF
:10425800850505EB8505B3FBF5F30133C3F30B03C4
:1042680043F4404388E7042386E7012384E70120D9
:1042780070470120ACE700BFA08601007F841E00C4
:1042880083DE1B43FF083D00D34D62102DE9F04348
:1042980083B004460F46904699460C9EFEF792F965
:1042A80094F83D20202A03D0022003B0BDE8F08313
:1042B80005460090192301224A492046FFF797FC3A
:1042C800002840F0898094F83C30012B00F086806B
:1042D800012384F83C3023681A6812F0010F03D1D7
:1042E8001A6842F001021A602268136823F4006316
:1042F8001360212384F83D30402384F83E300023A6
:1043080023640A9B6362BDF82C306385638D238523
:10431800354BE362019500964B46424639462046A6
:10432800FFF754FD00285BD1238D002B35D02A469A
:1043380031462046FFF71BFD20BB626A23681278CE
:104348001A61626A531C6362218D013989B2218521
:10435800638D9BB2013B9BB263852368586910F05B
:10436800040FE1D00029DFD052781A61636A013363
:104378006362238D013B2385638D9BB2013B9BB216
:104388006385D1E7236C042B01D001208DE72268D7
:10439800136843F400731360F7E72A463146204652
:1043A800FFF72AFE50B1236C042B01D001207CE7D3
:1043B8002268136843F400731360F7E722681368F0
:1043C80043F400731360202384F83D30002384F8FD
:1043D8003E3084F83C3068E7022066E7022064E754
:1043E800012062E7020010000000FFFF2DE9F04302
:1043F80087B004460F4690469946109EFEF7E2F8AD
:1044080094F83D20202A04D00227384607B0BDE89A
:10441800F083054600901923012289492046FFF7B9
:10442800E6FB002840F04E8194F83C30012B00F068
:104438004B81012384F83C3023681A6812F0010F7D
:1044480003D11A6842F001021A602268136823F443
:1044580000631360222384F83D30402384F83E3003
:10446800002323640E9B6362BDF83C306385638D33
:104478002385744BE362019500964B4642463946C4
:104488002046FFF70FFD0746002840F01F81238DC7
:104498005BB9029323685A6902929A690292029A56
:1044A8001A6842F400721A6075E0012B0AD0022BD8
:1044B8001AD00023059323685A6905929B690593CE
:1044C800059B68E02268136823F480631360002367
:1044D800039323685A6903929A690392039A1A68A4
:1044E80042F400721A6056E02268136823F480636D
:1044F80013602268136843F4006313600023049375
:1045080023685A6904929B690493049B43E02A46F2
:1045180031462046FFF79FFD002840F0D9802368E8
:104528001A69636A1A70636A01336362238D013BF7
:104538002385638D9BB2013B9BB263852BE000957D
:104548003346002240492046FFF751FB002840F03F
:10455800C1802268136843F40073136023681A69E2
:10456800636A1A70626A531C6362238D013B238558
:10457800638D9BB2013B9BB2638523681B695370B3
:10458800636A01336362238D013B2385638D9BB28C
:10459800013B9BB26385238D002B00F08A80032B9F
:1045A80054D8012BB3D0022BC9D000953346002232
:1045B80025492046FFF71BFB002840F08D80226824
:1045C800136823F48063136023681A69636A1A7096
:1045D800636A01336362238D013B2385638D9BB23C
:1045E800013B9BB26385009533460022164920465D
:1045F800FFF7FDFA002871D12268136843F40073AD
:10460800136023681A69636A1A70626A531C6362CA
:10461800238D013B2385638D9BB2013B9BB2638550
:1046280023681B695370636A01336362238D013BFE
:104638002385638D9BB2013B9BB26385ABE700BFCB
:10464800020010000000FFFF040001002A46314666
:104658002046FFF700FD002842D123681A69636AE3
:104668001A70636A01336362228D013A92B222851D
:10467800638D9BB2013B9BB263852368596911F036
:10468800040F88D0032A0FD023681A69636A1A7046
:10469800636A01336362238D013B2385638D9BB27B
:1046A800013B9BB2638576E71A6822F480621A6040
:1046B800EAE7202384F83D30002384F83E3084F86C
:1046C8003C30A2E60227A0E602279EE601279CE6E8
:1046D80001279AE6012798E6012796E6012794E63E
:1046E800012792E6DFF834D0FEF71EFB0C480D498F
:1046F8000D4A002302E0D458C4500433C4188C4235
:10470800F9D30A4A0A4C002301E013600432A2429A
:10471800FBD300F01FF8FBF77BFE70470000022078
:104728000000002070000020845000087000002065
:10473800A4070020FEE702440346934200D17047D5
:1047480003F8011BF9E70000014B1868704700BF28
:104758002000002070B50D4B0D4D5B1B9C100026F2
:10476800A64209D100F048FC0A4D0B4B5B1B9C107C
:104778000026A64205D170BD55F8043B984701367E
:10478800EEE755F8043B98470136F2E77C500008FD
:104798007C5000087C5000088050000808B52DEDBA
:1047A800028BB0EE408A00F035F8B4EE488AF1EE9C
:1047B80010FAF0EE408A0AD6B0EE480A00F01CF86B
:1047C800F7EE007AB4EEE70AF1EE10FA04DCB0EE88
:1047D800680ABDEC028B08BDFFF7B6FFBDEC028B83
:1047E800034621221A600248BDE8084000F00CB8D0
:1047F8003850000800F008B910EE103A23F00043D2
:1048080000EE103A704700BF9FED010A704700BFE5
:104818000000C07F38B510EE105A25F00044B4F1FE
:104828007E5F2DED048BF0EE407A7FD077D8B4F11F
:104838007C5F0ED2B4F1485F80F090809FED627A81
:1048480030EE077AF7EE006AB4EEE67AF1EE10FA87
:1048580062DCB0EE670AFFF7CFFFF7EE007A37EEBB
:10486800C08AB6EE007A28EE078ADFED586A9FED17
:10487800587A9FED586A9FED585ADFED585ADFED88
:10488800588AE8EE076A9FED577AA8EE067AA6EEF0
:10489800885A9FED556ADFED556AA7EE086AE5EE7E
:1048A800085A9FED537AA6EE087AE5EE886AE7EE95
:1048B800087AE6EE888AB0EE480AB0EE679A00F009
:1048C8001BFA4C4B68EE888A9C4288EE896A38D875
:1048D80010EE103A6FF30B0306EE903AA6EEE68A56
:1048E80070EE267A9FED447AC8EE274AF0EE005A19
:1048F800A4EEE57ADFED417A30EE000AB0EE675AB1
:1049080090EE067AA6EEE55A37EE457A37EEC70AF4
:10491800002D01DCB1EE400ABDEC048B38BDBDECC6
:10492800048B70EE407A87EEA70A38BDBDEC048B85
:104938009FED310A9FED327A27EE800AA7EE870AAB
:1049480038BDA0EE060A9FED2F7ADFED2D7AF0EE46
:10495800006AA0EE267A37EEC70AD9E720EE007A79
:10496800DFED1B6A9FED196ADFED1B5A9FED195A9F
:10497800DFED1A4AA7EE266ABDEC048BE6EE075A6D
:10498800DFED186A9FED186AE7EE056AE5EE874ADB
:10499800A6EE876A9FED155ADFED155ADFED106A0E
:1049A800A4EE875AE6EE075AE5EE076AB7EE006A04
:1049B800A5EE876A26EE877AC7EE066AE0EE267AC3
:1049C800B0EE670A38BD00BFCAF24971047F4F3A9A
:1049D80008EF11382EC69D3D461124BDA80A4E3E4B
:1049E800ABAA2A3E613330BF2D57014090B0A6BE16
:1049F80039D119C09999793F2EBD3BB3DB0F493F97
:104A0800DB0FC93F2EBD3B3310B582B0CDED010A97
:104A1800019B23F00042B2F1FF4FF0EE407A30D80C
:104A280010EE100A20F00041B1F1FF4F29D8B3F180
:104A38007E5F3ED09C1704F0020444EAD07431B380
:104A48007AB3B2F1FF4F3FD0B1F1FF4F29D0891AA5
:104A5800B1F1F45F4FEAE15233DA002B41DA3C322C
:104A68003FDA9FED330A012C4DD0022C42D064B1BD
:104A78009FED307ADFED307A30EE070A30EE670AC4
:104A880003E09DED017A37EE270A02B010BD022C33
:104A98000CD09FED2A7A032C08BFB0EE470A02B06B
:104AA80010BD00280ADB9FED260AEEE79FED220ADB
:104AB800EBE702B0BDE8104000F04CB89FED210ACA
:104AC800E3E79FED1F0ACEE7B1F1FF4F04F1FF3492
:104AD80020D0022C26D81C4B03EB840393ED000A4C
:104AE800D3E79DED017A87EE870AFFF785FE00F090
:104AF80031F8B8E79FED0F7ADFED0F7A30EE070A4D
:104B080037EEC00AC1E710EE103A03F1004300EE99
:104B1800103ABAE7022C08D80C4B03EB840393ED48
:104B2800000AB2E79FED020AAFE79FED090AACE77A
:104B3800000000002EBDBB33DB0F4940DB0F49C02E
:104B4800DB0FC93FDB0FC9BF3C50000848500008C5
:104B5800DB0F493F38B510EE105A25F00044B4F188
:104B6800A14FF0EE407A07D3B4F1FF4F55D8002D8E
:104B780077DD9FED4E0A38BD4D4B9C425CD8B4F1B1
:104B8800445F4DD34FF0FF3327EEA76A9FED495A94
:104B98009FED497ADFED495ADFED494A66EE066A2C
:104BA8005A1CA6EE857AE6EEA54A9FED465ADFED39
:104BB800465AA7EE265AE4EEA65A9FED447ADFED50
:104BC800444AA5EE267AE5EEA64A9FED425ADFED65
:104BD800425AA7EE265A9FED417AA4EEA67AE5EE50
:104BE800265A27EE267AA5EE867A27EE877A3BD0D4
:104BF8003B493C4A01EB8301D1ED006A37EE667A06
:104C080002EB8303D3ED006A37EE677A002D36EEA8
:104C1800C70AB0DAB1EE400A38BD30EE000A38BD36
:104C28009FED317A30EE077AF7EE006AB4EEE67A55
:104C3800F1EE10FAA6DD38BDFFF7DEFD2B4B9C42E6
:104C480015D8A3F5D0039C4226D8F0EE007ABFEE23
:104C5800007AA0EE277A002330EE270AC7EE007A02
:104C680092E79FED230A38BD37EEC70A38BD214BBE
:104C78009C420BD8F7EE087AB7EE007AA0EE277AB6
:104C8800022330EE670AC0EE077A7DE7BFEE007AAE
:104C9800C7EE007A032377E7F7EE007A30EE677AFB
:104CA80030EE270A0123C7EE007A6DE7DB0FC93F14
:104CB800FFFFDF3ED769853C59DA4B3D21A215BD80
:104CC8006BF16EBD356B883D95879DBD6E2EBA3DE7
:104CD800388EE3BD2549123EABAAAA3ECDCC4CBEC8
:104CE8005450000864500008CAF24971FFFF973F0A
:104CF800DB0FC9BFFFFF1B40B1EEC00A704700BF02
:104D08002DE9F047089D0F4604468C46002B48D1F4
:104D18008A42164661D9B2FA82F34BB1C3F1200236
:104D280001FA03FC20FA02F29E4042EA0C0C9C4075
:104D38004FEA164EB7B2BCFBFEF1220C0EFB11CCAB
:104D480042EA0C4201FB07F0904209D9B21801F17E
:104D5800FF3C80F0EE80904240F2EB800239324412
:104D6800121AA4B2B2FBFEF00EFB102244EA02446F
:104D780000FB07F7A74209D9341900F1FF3280F088
:104D8800DA80A74240F2D7803444023840EA014032
:104D9800E41B00211DB1DC400023C5E90043BDE848
:104DA800F0878B4206D90DB1C5E9000100210846FC
:104DB800BDE8F087B3FA83F1002948D1BB4202D39A
:104DC800824200F20781841A67EB030201209446AD
:104DD800002DE4D0C5E9004CE1E7002A00F09280FC
:104DE800B2FA82F3002B40F0A8808A1A4FEA164ED6
:104DF8001FFA86FC0121200CB2FBFEF70EFB1722DE
:104E080040EA02420CFB07F0904207D9B21807F1BA
:104E1800FF3802D2904200F2E2804746121AA4B24A
:104E2800B2FBFEF00EFB102244EA02440CFB00FC2D
:104E3800A44507D9341900F1FF3202D2A44500F283
:104E4800CB801046A4EB0C0440EA0740A2E7C1F16E
:104E580020068B4022FA06FC4CEA030C07FA01F400
:104E680020FA06F3F7404FEA1C49234300FA01F8F9
:104E78001FFA8CFEB7FBF9F01C0C09FB107744EA0B
:104E8800074400FB0EF7A74202FA01F20AD91CEB0D
:104E9800040400F1FF3A80F09B80A74240F298801A
:104EA80002386444E41B9FB2B4FBF9F309FB1344D2
:104EB80047EA044403FB0EFEA64509D91CEB04048B
:104EC80003F1FF3780F08280A6457FD9023B644416
:104ED80043EA0040A4EB0E04A0FB02E7BC42734681
:104EE800B94663D360D05DB1B8EB030264EB090443
:104EF80004FA06F622FA01F31E43CC40C5E9006421
:104F080000214CE76208480842EAC1710B0C43EAE9
:104F180000438AB242EA0342B3FBF6F1E407B4461F
:104F28003746B6461F23B0FBF6F0D21B41EA0041D4
:104F380061E7614614E7104628E7C3F1200120FA2B
:104F480001F29E4027FA01F19F403A434FEA164E7C
:104F58001FFA86FCB1FBFEF70EFB1710110C41EA95
:104F6800004107FB0CF8884504FA03F43AD9711894
:104F780007F1FF3001D288451FD8A1EB0801B1FB2A
:104F8800FEF808FB0CF70EFB181192B242EA014238
:104F9800BA422FD2B21808F1FF31C6D2BA42C4D2EF
:104FA800A8F102013244C0E7F0459CD2BEEB0203EF
:104FB80067EB0C070138B94695E7A6EB08084144AA
:104FC800B81EB1FBFEF808FB0CF7DCE73B467FE7B1
:104FD800504667E70846FBE63444023832E7023FAA
:104FE80032441BE7A1EB08013846B1FBFEF808FB89
:104FF8000CF7C8E7414698E7F8B500BFF8BC08BC0D
:105008009E467047F8B500BFF8BC08BC9E4670477E
:10501800000000000102030400000000000000007E
:105028000102030406070809A5A5A5A5A500000017
:105038000000000000000080DB0F4940DB0F49C082
:10504800DB0F49BFE4CB1640E4CB16C06937AC315F
:1050580068212233B40F14336821A2333863ED3E3C
:0C506800DA0F493F5E987B3FDA0FC93F2A
:0850740094FCFF7F0100000025
:04507C002502000801
:04508000FD01000826
:1050840001000000100000000024F4000000803F34
:105094000AD7233C0000803F11223344550000000E
:1050A40024000020000000006C060020D40600202C
:1050B4003C07002000000000000000000000000089
:1050C40000000000000000000000000000000000DC
:1050D40000000000000000000000000000000000CC
:1050E40000000000000000000000000000000000BC
:04000005080046EDBC
:00000001FF
